{
  "_format": "hh-sol-artifact-1",
  "contractName": "CRESettlementOracle",
  "sourceName": "src/CRESettlementOracle.sol",
  "abi": [
    {
      "inputs": [
        {
          "internalType": "address",
          "name": "_predictionMarket",
          "type": "address"
        }
      ],
      "stateMutability": "nonpayable",
      "type": "constructor"
    },
    {
      "inputs": [],
      "name": "InvalidAddress",
      "type": "error"
    },
    {
      "inputs": [
        {
          "internalType": "address",
          "name": "owner",
          "type": "address"
        }
      ],
      "name": "OwnableInvalidOwner",
      "type": "error"
    },
    {
      "inputs": [
        {
          "internalType": "address",
          "name": "account",
          "type": "address"
        }
      ],
      "name": "OwnableUnauthorizedAccount",
      "type": "error"
    },
    {
      "inputs": [],
      "name": "Unauthorized",
      "type": "error"
    },
    {
      "anonymous": false,
      "inputs": [
        {
          "indexed": true,
          "internalType": "address",
          "name": "newMarket",
          "type": "address"
        }
      ],
      "name": "MarketAddressUpdated",
      "type": "event"
    },
    {
      "anonymous": false,
      "inputs": [
        {
          "indexed": true,
          "internalType": "address",
          "name": "node",
          "type": "address"
        },
        {
          "indexed": false,
          "internalType": "bool",
          "name": "authorized",
          "type": "bool"
        }
      ],
      "name": "NodeAuthorized",
      "type": "event"
    },
    {
      "anonymous": false,
      "inputs": [
        {
          "indexed": true,
          "internalType": "address",
          "name": "previousOwner",
          "type": "address"
        },
        {
          "indexed": true,
          "internalType": "address",
          "name": "newOwner",
          "type": "address"
        }
      ],
      "name": "OwnershipTransferred",
      "type": "event"
    },
    {
      "anonymous": false,
      "inputs": [
        {
          "indexed": true,
          "internalType": "uint256",
          "name": "marketId",
          "type": "uint256"
        },
        {
          "indexed": false,
          "internalType": "string",
          "name": "outcome",
          "type": "string"
        },
        {
          "indexed": true,
          "internalType": "address",
          "name": "node",
          "type": "address"
        }
      ],
      "name": "SettlementReceived",
      "type": "event"
    },
    {
      "inputs": [
        {
          "internalType": "address",
          "name": "",
          "type": "address"
        }
      ],
      "name": "authorizedNodes",
      "outputs": [
        {
          "internalType": "bool",
          "name": "",
          "type": "bool"
        }
      ],
      "stateMutability": "view",
      "type": "function"
    },
    {
      "inputs": [
        {
          "internalType": "address",
          "name": "node",
          "type": "address"
        },
        {
          "internalType": "bool",
          "name": "authorized",
          "type": "bool"
        }
      ],
      "name": "determineNodeAuth",
      "outputs": [],
      "stateMutability": "nonpayable",
      "type": "function"
    },
    {
      "inputs": [],
      "name": "owner",
      "outputs": [
        {
          "internalType": "address",
          "name": "",
          "type": "address"
        }
      ],
      "stateMutability": "view",
      "type": "function"
    },
    {
      "inputs": [],
      "name": "predictionMarket",
      "outputs": [
        {
          "internalType": "contract PredictionMarket",
          "name": "",
          "type": "address"
        }
      ],
      "stateMutability": "view",
      "type": "function"
    },
    {
      "inputs": [
        {
          "internalType": "uint256",
          "name": "marketId",
          "type": "uint256"
        },
        {
          "internalType": "string",
          "name": "outcome",
          "type": "string"
        },
        {
          "internalType": "bytes",
          "name": "proof",
          "type": "bytes"
        }
      ],
      "name": "receiveSettlement",
      "outputs": [],
      "stateMutability": "nonpayable",
      "type": "function"
    },
    {
      "inputs": [],
      "name": "renounceOwnership",
      "outputs": [],
      "stateMutability": "nonpayable",
      "type": "function"
    },
    {
      "inputs": [
        {
          "internalType": "address",
          "name": "newOwner",
          "type": "address"
        }
      ],
      "name": "transferOwnership",
      "outputs": [],
      "stateMutability": "nonpayable",
      "type": "function"
    },
    {
      "inputs": [
        {
          "internalType": "address",
          "name": "_newMarket",
          "type": "address"
        }
      ],
      "name": "updatePredictionMarket",
      "outputs": [],
      "stateMutability": "nonpayable",
      "type": "function"
    }
  ],
  "bytecode": "0x6080346100c657601f61062238819003918201601f19168301916001600160401b038311848410176100cb578084926020946040528339810103126100c657516001600160a01b0390818116908190036100c65733156100ad5760005460018060a01b0319903382821617600055604051933391167f8be0079c531659141344cd1fd0a4f28419497f9722a3daafe3b4186f6b6457e0600080a3600154161760015561054090816100e28239f35b604051631e4fbdf760e01b815260006004820152602490fd5b600080fd5b634e487b7160e01b600052604160045260246000fdfe6040608081526004908136101561001557600080fd5b600091823560e01c806320a1e282146103fa578063519015cd14610378578063715018a61461031b5780637e53a740146102dd5780638665b8fa146101615780638da5cb5b14610139578063def114b61461010c5763f2fde38b1461007957600080fd5b3461010857602036600319011261010857610092610474565b9061009b6104bd565b6001600160a01b039182169283156100f2575050600054826bffffffffffffffffffffffff60a01b821617600055167f8be0079c531659141344cd1fd0a4f28419497f9722a3daafe3b4186f6b6457e0600080a380f35b51631e4fbdf760e01b8152908101849052602490fd5b8280fd5b50503461013557816003193601126101355760015490516001600160a01b039091168152602090f35b5080fd5b505034610135578160031936011261013557905490516001600160a01b039091168152602090f35b5034610108576060366003190112610108578035906024359267ffffffffffffffff938481116102d957610198903690840161048f565b9490926044358281116102b4576101b2903690830161048f565b5050338752600260205260ff838820541615806102c5575b6102b8576001546001600160a01b031691823b156102b4578784518094630261c90360e01b8252888583015286602483015281838161020e8d60448301908d6104e9565b03925af180156102aa57610260575b5050507f950f3b8cbb15a33591b81b757b00148e62c50c57f2f36a8aef1742c8de6b7de59161025a915191829160208352339660208401916104e9565b0390a380f35b829793971161029757508552938161025a7f950f3b8cbb15a33591b81b757b00148e62c50c57f2f36a8aef1742c8de6b7de561021d565b634e487b7160e01b835260419052602482fd5b84513d8a823e3d90fd5b8780fd5b82516282b42960e81b8152fd5b5086546001600160a01b03163314156101ca565b8580fd5b5050346101355760203660031901126101355760209160ff9082906001600160a01b03610308610474565b1681526002855220541690519015158152f35b83346103755780600319360112610375576103346104bd565b80546001600160a01b03198116825581906001600160a01b03167f8be0079c531659141344cd1fd0a4f28419497f9722a3daafe3b4186f6b6457e08280a380f35b80fd5b505034610135578060031936011261013557610392610474565b602435908115158092036103f6577f133bd293b8ca6fa1205d5bcb378f4c713567ae5ffec78c38d98ac59fe9c258bb916020916103cd6104bd565b6001600160a01b031680865260028352848620805460ff191660ff84161790559351908152a280f35b8380fd5b503461010857602036600319011261010857610414610474565b61041c6104bd565b6001600160a01b0316918215610467575050600180546001600160a01b031916821790557f1ffc2ce638bf89a9b479b7720b771213ddbe8049c1e0ed1541593cc3466247258280a280f35b5163e6c4247b60e01b8152fd5b600435906001600160a01b038216820361048a57565b600080fd5b9181601f8401121561048a5782359167ffffffffffffffff831161048a576020838186019501011161048a57565b6000546001600160a01b031633036104d157565b60405163118cdaa760e01b8152336004820152602490fd5b908060209392818452848401376000828201840152601f01601f191601019056fea2646970667358221220fb5d6550f3398ecf45f015eabdb359a6ec3d2bf415fbf05ae3af55aa8ed608c764736f6c63430008140033",
  "linkReferences": {},
  "deployedLinkReferences": {}
}