{
  "_format": "hh-sol-artifact-1",
  "contractName": "PredictionMarket",
  "sourceName": "src/PredictionMarket.sol",
  "abi": [
    {
      "inputs": [
        {
          "internalType": "address",
          "name": "_oracleAddress",
          "type": "address"
        }
      ],
      "stateMutability": "nonpayable",
      "type": "constructor"
    },
    {
      "inputs": [],
      "name": "AlreadyRevealed",
      "type": "error"
    },
    {
      "inputs": [],
      "name": "AlreadySettled",
      "type": "error"
    },
    {
      "inputs": [],
      "name": "BettingPhaseActive",
      "type": "error"
    },
    {
      "inputs": [],
      "name": "BettingPhaseClosed",
      "type": "error"
    },
    {
      "inputs": [],
      "name": "InvalidAmount",
      "type": "error"
    },
    {
      "inputs": [],
      "name": "InvalidBettingDeadline",
      "type": "error"
    },
    {
      "inputs": [],
      "name": "InvalidCommitment",
      "type": "error"
    },
    {
      "inputs": [],
      "name": "InvalidOutcome",
      "type": "error"
    },
    {
      "inputs": [],
      "name": "InvalidOutcomeCount",
      "type": "error"
    },
    {
      "inputs": [],
      "name": "InvalidReveal",
      "type": "error"
    },
    {
      "inputs": [],
      "name": "MarketNotSettled",
      "type": "error"
    },
    {
      "inputs": [],
      "name": "NoWinners",
      "type": "error"
    },
    {
      "inputs": [],
      "name": "NoWinnings",
      "type": "error"
    },
    {
      "inputs": [
        {
          "internalType": "address",
          "name": "owner",
          "type": "address"
        }
      ],
      "name": "OwnableInvalidOwner",
      "type": "error"
    },
    {
      "inputs": [
        {
          "internalType": "address",
          "name": "account",
          "type": "address"
        }
      ],
      "name": "OwnableUnauthorizedAccount",
      "type": "error"
    },
    {
      "inputs": [],
      "name": "ReentrancyGuardReentrantCall",
      "type": "error"
    },
    {
      "inputs": [],
      "name": "RevealPhaseActive",
      "type": "error"
    },
    {
      "inputs": [],
      "name": "RevealPhaseClosed",
      "type": "error"
    },
    {
      "inputs": [],
      "name": "TransferFailed",
      "type": "error"
    },
    {
      "inputs": [],
      "name": "Unauthorized",
      "type": "error"
    },
    {
      "anonymous": false,
      "inputs": [
        {
          "indexed": true,
          "internalType": "uint256",
          "name": "marketId",
          "type": "uint256"
        },
        {
          "indexed": true,
          "internalType": "address",
          "name": "bettor",
          "type": "address"
        },
        {
          "indexed": false,
          "internalType": "bytes32",
          "name": "commitment",
          "type": "bytes32"
        },
        {
          "indexed": false,
          "internalType": "uint256",
          "name": "amount",
          "type": "uint256"
        }
      ],
      "name": "BetPlaced",
      "type": "event"
    },
    {
      "anonymous": false,
      "inputs": [
        {
          "indexed": true,
          "internalType": "uint256",
          "name": "marketId",
          "type": "uint256"
        },
        {
          "indexed": true,
          "internalType": "address",
          "name": "bettor",
          "type": "address"
        },
        {
          "indexed": false,
          "internalType": "string",
          "name": "outcome",
          "type": "string"
        },
        {
          "indexed": false,
          "internalType": "uint256",
          "name": "amount",
          "type": "uint256"
        }
      ],
      "name": "BetRevealed",
      "type": "event"
    },
    {
      "anonymous": false,
      "inputs": [
        {
          "indexed": true,
          "internalType": "uint256",
          "name": "marketId",
          "type": "uint256"
        },
        {
          "indexed": false,
          "internalType": "string",
          "name": "question",
          "type": "string"
        },
        {
          "indexed": false,
          "internalType": "uint256",
          "name": "bettingDeadline",
          "type": "uint256"
        }
      ],
      "name": "MarketCreated",
      "type": "event"
    },
    {
      "anonymous": false,
      "inputs": [
        {
          "indexed": true,
          "internalType": "uint256",
          "name": "marketId",
          "type": "uint256"
        },
        {
          "indexed": false,
          "internalType": "string",
          "name": "outcome",
          "type": "string"
        }
      ],
      "name": "MarketSettled",
      "type": "event"
    },
    {
      "anonymous": false,
      "inputs": [
        {
          "indexed": true,
          "internalType": "address",
          "name": "previousOwner",
          "type": "address"
        },
        {
          "indexed": true,
          "internalType": "address",
          "name": "newOwner",
          "type": "address"
        }
      ],
      "name": "OwnershipTransferred",
      "type": "event"
    },
    {
      "anonymous": false,
      "inputs": [
        {
          "indexed": true,
          "internalType": "uint256",
          "name": "marketId",
          "type": "uint256"
        },
        {
          "indexed": true,
          "internalType": "address",
          "name": "bettor",
          "type": "address"
        },
        {
          "indexed": false,
          "internalType": "uint256",
          "name": "amount",
          "type": "uint256"
        }
      ],
      "name": "WinningsClaimed",
      "type": "event"
    },
    {
      "inputs": [
        {
          "internalType": "uint256",
          "name": "",
          "type": "uint256"
        },
        {
          "internalType": "address",
          "name": "",
          "type": "address"
        },
        {
          "internalType": "uint256",
          "name": "",
          "type": "uint256"
        }
      ],
      "name": "bets",
      "outputs": [
        {
          "internalType": "bytes32",
          "name": "commitment",
          "type": "bytes32"
        },
        {
          "internalType": "uint256",
          "name": "amount",
          "type": "uint256"
        },
        {
          "internalType": "bool",
          "name": "revealed",
          "type": "bool"
        },
        {
          "internalType": "uint256",
          "name": "revealedOutcomeId",
          "type": "uint256"
        },
        {
          "internalType": "address",
          "name": "bettor",
          "type": "address"
        }
      ],
      "stateMutability": "view",
      "type": "function"
    },
    {
      "inputs": [
        {
          "internalType": "uint256",
          "name": "marketId",
          "type": "uint256"
        }
      ],
      "name": "claimWinnings",
      "outputs": [],
      "stateMutability": "nonpayable",
      "type": "function"
    },
    {
      "inputs": [
        {
          "internalType": "string",
          "name": "question",
          "type": "string"
        },
        {
          "internalType": "string[]",
          "name": "outcomes",
          "type": "string[]"
        },
        {
          "internalType": "uint256",
          "name": "duration",
          "type": "uint256"
        },
        {
          "internalType": "uint256",
          "name": "revealDuration",
          "type": "uint256"
        }
      ],
      "name": "createMarket",
      "outputs": [],
      "stateMutability": "nonpayable",
      "type": "function"
    },
    {
      "inputs": [
        {
          "internalType": "uint256",
          "name": "marketId",
          "type": "uint256"
        }
      ],
      "name": "getMarketOutcomes",
      "outputs": [
        {
          "internalType": "string[]",
          "name": "",
          "type": "string[]"
        }
      ],
      "stateMutability": "view",
      "type": "function"
    },
    {
      "inputs": [
        {
          "internalType": "uint256",
          "name": "",
          "type": "uint256"
        }
      ],
      "name": "markets",
      "outputs": [
        {
          "internalType": "uint256",
          "name": "id",
          "type": "uint256"
        },
        {
          "internalType": "string",
          "name": "question",
          "type": "string"
        },
        {
          "internalType": "uint256",
          "name": "bettingDeadline",
          "type": "uint256"
        },
        {
          "internalType": "uint256",
          "name": "revealDeadline",
          "type": "uint256"
        },
        {
          "internalType": "bool",
          "name": "revealed",
          "type": "bool"
        },
        {
          "internalType": "uint256",
          "name": "finalOutcomeId",
          "type": "uint256"
        },
        {
          "internalType": "bool",
          "name": "settled",
          "type": "bool"
        },
        {
          "internalType": "uint256",
          "name": "totalPool",
          "type": "uint256"
        }
      ],
      "stateMutability": "view",
      "type": "function"
    },
    {
      "inputs": [],
      "name": "nextMarketId",
      "outputs": [
        {
          "internalType": "uint256",
          "name": "",
          "type": "uint256"
        }
      ],
      "stateMutability": "view",
      "type": "function"
    },
    {
      "inputs": [],
      "name": "oracleAddress",
      "outputs": [
        {
          "internalType": "address",
          "name": "",
          "type": "address"
        }
      ],
      "stateMutability": "view",
      "type": "function"
    },
    {
      "inputs": [],
      "name": "owner",
      "outputs": [
        {
          "internalType": "address",
          "name": "",
          "type": "address"
        }
      ],
      "stateMutability": "view",
      "type": "function"
    },
    {
      "inputs": [
        {
          "internalType": "uint256",
          "name": "marketId",
          "type": "uint256"
        },
        {
          "internalType": "bytes32",
          "name": "commitment",
          "type": "bytes32"
        }
      ],
      "name": "placeBet",
      "outputs": [],
      "stateMutability": "payable",
      "type": "function"
    },
    {
      "inputs": [],
      "name": "renounceOwnership",
      "outputs": [],
      "stateMutability": "nonpayable",
      "type": "function"
    },
    {
      "inputs": [
        {
          "internalType": "uint256",
          "name": "marketId",
          "type": "uint256"
        },
        {
          "internalType": "uint256",
          "name": "outcomeIndex",
          "type": "uint256"
        },
        {
          "internalType": "string",
          "name": "secret",
          "type": "string"
        },
        {
          "internalType": "uint256",
          "name": "betIndex",
          "type": "uint256"
        }
      ],
      "name": "revealBet",
      "outputs": [],
      "stateMutability": "nonpayable",
      "type": "function"
    },
    {
      "inputs": [
        {
          "internalType": "address",
          "name": "_oracle",
          "type": "address"
        }
      ],
      "name": "setOracle",
      "outputs": [],
      "stateMutability": "nonpayable",
      "type": "function"
    },
    {
      "inputs": [
        {
          "internalType": "uint256",
          "name": "marketId",
          "type": "uint256"
        },
        {
          "internalType": "string",
          "name": "outcome",
          "type": "string"
        }
      ],
      "name": "settleMarket",
      "outputs": [],
      "stateMutability": "nonpayable",
      "type": "function"
    },
    {
      "inputs": [
        {
          "internalType": "address",
          "name": "newOwner",
          "type": "address"
        }
      ],
      "name": "transferOwnership",
      "outputs": [],
      "stateMutability": "nonpayable",
      "type": "function"
    }
  ],
  "bytecode": "0x6080346100ca57601f61144038819003918201601f19168301916001600160401b038311848410176100cf578084926020946040528339810103126100ca57516001600160a01b0390818116908190036100ca5733156100b15760005460018060a01b0319903382821617600055604051933391167f8be0079c531659141344cd1fd0a4f28419497f9722a3daafe3b4186f6b6457e0600080a360018055600354161760035561135a90816100e68239f35b604051631e4fbdf760e01b815260006004820152602490fd5b600080fd5b634e487b7160e01b600052604160045260246000fdfe608080604052600436101561001357600080fd5b60003560e01c9081630261c90314610f045750806312a3bf0e14610e0e5780632e9afae214610c83578063308eba9714610be9578063406ef2ef14610bcb57806360abe86d14610975578063677bd9ff146107905780636f3c61c9146102e4578063715018a61461028b5780637adbf973146102485780638da5cb5b1461021f578063a89ae4ba146101f6578063b1283e771461014c5763f2fde38b146100b957600080fd5b34610147576020366003190112610147576100d2611113565b6100da61124d565b6001600160a01b0390811690811561012e57600054826bffffffffffffffffffffffff60a01b821617600055167f8be0079c531659141344cd1fd0a4f28419497f9722a3daafe3b4186f6b6457e0600080a3005b604051631e4fbdf760e01b815260006004820152602490fd5b600080fd5b34610147576020366003190112610147576004356000526004602052604060002080546040519161018b836101848160018501611195565b038461122b565b60038101549060048101549060ff600582015416600682015490600860ff600785015416930154936101cf60405198899889526101008060208b01528901906110ee565b95604088015260608701521515608086015260a0850152151560c084015260e08301520390f35b34610147576000366003190112610147576003546040516001600160a01b039091168152602090f35b34610147576000366003190112610147576000546040516001600160a01b039091168152602090f35b3461014757602036600319011261014757610261611113565b61026961124d565b600380546001600160a01b0319166001600160a01b0392909216919091179055005b34610147576000366003190112610147576102a461124d565b600080546001600160a01b0319811682556001600160a01b03167f8be0079c531659141344cd1fd0a4f28419497f9722a3daafe3b4186f6b6457e08280a3005b346101475760803660031901126101475767ffffffffffffffff6004358181116101475761031690369060040161109d565b90826024351161014757366023602435011215610147578260243560040135116101475736602480356004013560051b81350101116101475761035761124d565b6044351561077e57600160243560040135111561076c576002549161037b83611279565b60025582600052600460205260406000208381558482116106b457600181016103a4815461115b565b601f811161073a575b50826000601f82116001146106d5576000916106ca575b508360011b906000198560031b1c19161790555b600160401b60243560040135116106b4576002810180546004602435013591829055908111610636575b506024803501946002820160005260206000206000965b60243560040135881061049c57867f2d1e9ad45dbe8e898e0374deebf2a661b2ae7c1855d2a29507d584c35d287c7587878760076104596044354261129f565b9182600382015561046c6064358461129f565b60048201550160ff1981541690556104916040519384936040855260408501916112ac565b9060208301520390a2005b602435360360421901813512156101475782602482358135010135116101475760248035823501908101353603604490910113610147576104dd825461115b565b601f81116105f1575b506000601f602483358135010135116001146105545760206001928392600090602483358135010135610541575b50600019602480358435010135600381901b9190911c1990911690841b1785555b01920197019690610419565b604491508235602435010101358c610514565b8260005260206000209060005b602480358535010135601f191681106105d157506001928392602092602480358435010135601f198116106105a7575b505082602482358135010135811b018555610535565b604460001960f860248635813501013560031b161c19918435602435010101351690558b80610591565b909160206001819260448688356024350101013581550193019101610561565b600083815260209081902061062692602480358635010135601f810160051c8301931161062c575b601f0160051c0190611288565b886104e6565b9091508190610619565b600282016000526020600020906024356004013582015b818301811061065d575050610402565b8061066a6001925461115b565b80610677575b500161064d565b601f8111831461068d5750600081555b89610670565b6000908282526106ab601f60208420920160051c8201858301611288565b81835555610687565b634e487b7160e01b600052604160045260246000fd5b9050840135876103c4565b60008381526020812092505b601f1986168110610722575084601f19811610610708575b5050600183811b0190556103d8565b850135600019600386901b60f8161c1916905586806106f9565b9091602060018192858a0135815501930191016106e1565b61076690826000526020600020601f860160051c8101916020871061062c57601f0160051c0190611288565b866103ad565b60405163162cc9e360e11b8152600490fd5b60405163d20630e160e01b8152600490fd5b346101475760208060031936011261014757600435906107ae6112cd565b816000526004815260406000209160ff90816007850154161561096357600093600681019283546000526009820185526040600020549384159384610951578060005260058752604060002033600052875260406000209060005b82548110156108b85761081c8184611129565b5085600282015416806108aa575b61083e575b5061083990611279565b610809565b6001909a919a01998a5491600888015492838102938185041490151715610894578861087e576108766000918b61083995049061129f565b9b559061082f565b634e487b7160e01b600052601260045260246000fd5b634e487b7160e01b600052601160045260246000fd5b50600381015485541461082a565b89828a821561093f57600080808086335af13d1561093a573d6108da81611308565b906108e8604051928361122b565b81526000833d92013e5b15610928577f5380cf6fe903b40c6d5a9e0dfbca2f3a423f0a21520b4d5947ed5169bdba946d906040519384523393a360018055005b6040516312171d8360e31b8152600490fd5b6108f2565b6040516330a748d360e11b8152600490fd5b604051633728feb360e01b8152600490fd5b604051630ff84df760e11b8152600490fd5b346101475760803660031901126101475760243560043560443567ffffffffffffffff8111610147576109ac90369060040161109d565b9092606435936109ba6112cd565b83600052602094600486526003604060002001544210610bb9578460005260048652600460406000200154421015610ba75784600052600586526040600020336000528652604060002054811015610b9557610a2d90856000526005875260406000203360005287526040600020611129565b5092600284019283549360ff8516610b83578660005260048852600260406000200154821015610b7157610a84948760005260048952610a8b610a778460026040600020016112f0565b5060405197888092611195565b038761122b565b6001870194610aba610ad560408c8954988995818d85519785899687019a8b52825192839189890191016110cb565b8401918583013701600083820152038d81018452018261122b565b519020875403610b5f577fa4a161a0e1fce41ab53089c7acd93ca5d50ed4bda042e8907e975d121115de16968392600160039360ff1916179055015585600052600487526009604060002001906000528652610b37604060002091825461129f565b905554610b4f604051926040845260408401906110ee565b948201528033940390a360018055005b604051636033c4fd60e11b8152600490fd5b60405163c74a206d60e01b8152600490fd5b60405163a89ac15160e01b8152600490fd5b604051639ea6d12760e01b8152600490fd5b6040516359f7396160e01b8152600490fd5b6040516363fff8d760e01b8152600490fd5b34610147576000366003190112610147576020600254604051908152f35b34610147576060366003190112610147576024356001600160a01b038181169182900361014757604435916004356000526005602052604060002090600052602052604060002080548310156101475760a092610c4591611129565b509081549160018101549160ff6002830154169060046003840154930154169260405194855260208501521515604084015260608301526080820152f35b604036600319011261014757602435600435610c9d6112cd565b80600052602060048152600360406000200154421015610dfc573415610dea5781600052600581526040600020336000528152604060002060405160a0810181811067ffffffffffffffff8211176106b457604052848152828101348152604082016000815260608301906000825260808401943386528054600160401b8110156106b457610d3191600182018155611129565b939093610dd457600494518455516001840155600283019051151560ff80198354169116179055516003820155019060018060a01b039051166bffffffffffffffffffffffff60a01b82541617905581600052600481526008604060002001610d9b34825461129f565b905560405192835234908301527faf4367ace73659c0ecaaa2cfdccaaac7d126467b62ebd73fb14452aaa9f9c7a360403393a360018055005b634e487b7160e01b600052600060045260246000fd5b60405163162908e360e11b8152600490fd5b60405163f31245ad60e01b8152600490fd5b34610147576020806003193601126101475760043560005260048152600260406000200180549067ffffffffffffffff82116106b457829060405192610e59838260051b018561122b565b8084528284018092600052836000206000915b838310610ed35750505050604051918083019381845251809452604083019360408160051b85010192916000955b828710610ea75785850386f35b909192938280610ec3600193603f198a820301865288516110ee565b9601920196019592919092610e9a565b6001868192604099989951610ef381610eec8189611195565b038261122b565b815201920192019190959495610e6c565b34610147576040366003190112610147576004359060243567ffffffffffffffff811161014757610f3990369060040161109d565b600354919290916001600160a01b0316330361108f575082600052602060048152600460406000200154421061107d5783600052600481526040600020600781019384549460ff861661106c576000926000936000600283018054915b828110610ff0575b50505015610b71577fee36b75a92a0346099af00153702a505a86505e7104652157a58a8ad5a5e2bfa96610feb946006600193015560ff19161790556040519383859485528401916112ac565b0390a2005b610eec61100d61100083856112f0565b5060405192838092611195565b89815191012061101c8b611308565b611029604051918261122b565b8b8152368c8a0111610147578a81019060008c8e808d8637830101525190201461105b5761105690611279565b610f96565b939650505050926001898080610f9e565b60405162560ff960e81b8152600490fd5b60405163249f92ad60e01b8152600490fd5b6282b42960e81b8152600490fd5b9181601f840112156101475782359167ffffffffffffffff8311610147576020838186019501011161014757565b60005b8381106110de5750506000910152565b81810151838201526020016110ce565b90602091611107815180928185528580860191016110cb565b601f01601f1916010190565b600435906001600160a01b038216820361014757565b8054821015611145576000526005602060002091020190600090565b634e487b7160e01b600052603260045260246000fd5b90600182811c9216801561118b575b602083101461117557565b634e487b7160e01b600052602260045260246000fd5b91607f169161116a565b90600092918054916111a68361115b565b91828252600193848116908160001461120857506001146111c8575b50505050565b90919394506000526020928360002092846000945b8386106111f45750505050010190388080806111c2565b8054858701830152940193859082016111dd565b9294505050602093945060ff191683830152151560051b010190388080806111c2565b90601f8019910116810190811067ffffffffffffffff8211176106b457604052565b6000546001600160a01b0316330361126157565b60405163118cdaa760e01b8152336004820152602490fd5b60001981146108945760010190565b818110611293575050565b60008155600101611288565b9190820180921161089457565b908060209392818452848401376000828201840152601f01601f1916010190565b6002600154146112de576002600155565b604051633ee5aeb560e01b8152600490fd5b80548210156111455760005260206000200190600090565b67ffffffffffffffff81116106b457601f01601f19166020019056fea2646970667358221220a78073a8119ce91780cea6efdaef106b88ca0b0c1392858b159c4e8f52f719ab64736f6c63430008140033",
  "linkReferences": {},
  "deployedLinkReferences": {}
}